:100000006EC000000C94B6140C94E31490C0000071
:100010008EC000008CC000008AC000000C946B19D8
:1000200086C0000084C0000082C0000080C00000C4
:100030007EC000000C94C7197AC0000078C0000090
:100040000C94101574C000000C94A9170C94DB17C5
:100050006EC000006CC000006AC0000068C00000F4
:1000600066C0000064C000004705E3064607480775
:100070003E066F0608052805EC042507140721072E
:10008000480748074807D70400000008000201009D
:100090000003040700000000000000000102040843
:1000A00010204080010204081020010204081020E2
:1000B000040404040404040402020202020203030E
:1000C0000303030300000000250028002B000000AC
:1000D0000000240027002A00020000187A181124CA
:1000E0001FBECFEFD8E0DEBFCDBF12E0A0E0B1E091
:1000F000ECE2FBE402C005900D92AA37B107D9F7F4
:1001000024E0AAE7B2E001C01D92A435B207E1F7EE
:1001100010E0CEEDD0E004C02297FE010E9436240C
:10012000CA3DD107C9F70E94E0210C94942568CFFD
:100130008F929F92AF92BF92CF92DF92EF92FF92F7
:10014000C0906601D0906701E0906801F09069016D
:1001500020E030E040E853E4C701B6010E94C92224
:1001600087FF0EC020E030E0A901C701B6010E9460
:10017000AB2387FD07C0C701B6010E94CD2203C093
:100180006FEF01C060E0809156010E943F16C09061
:100190006A01D0906B01E0906C01F0906D0120E05D
:1001A00030E040E853E4C701B6010E94C92287FF4E
:1001B0000EC020E030E0A901C701B6010E94AB23C8
:1001C00087FD07C0C701B6010E94CD2203C06FEFB3
:1001D00001C060E080915A010E943F16C0906E01FC
:1001E000D0906F01E0907001F090710120E030E05C
:1001F00040E853E4C701B6010E94C92287FF0EC040
:1002000020E030E0A901C701B6010E94AB2387FDC1
:1002100007C0C701B6010E94CD2203C06FEF01C025
:1002200060E080915E010E943F16C0907201D09004
:100230007301E0907401F090750120E030E040E837
:1002400053E4C701B6010E94C92287FF0EC020E017
:1002500030E0A901C701B6010E94AB2387FD07C0AA
:10026000C701B6010E94CD2203C06FEF01C060E05C
:10027000809162010E943F1681E090E00E9421146B
:1002800040913F04509140046091410470914204B8
:1002900080E090E00E941D1480904B0490904C04EC
:1002A000A0904D04B0904E0420E030E040E85FEBB9
:1002B000C501B4010E94C922882331F1C0903F04D6
:1002C000D0904004E0904104F0904204A7019601D0
:1002D000C501B4010E9464224B015C0120E030E0C2
:1002E00040E054E3C701B6010E94AF239B01AC017B
:1002F000C501B4010E94AB23181634F08BE791E0DE
:1003000090932A048093290480914F04882331F02C
:100310008BE791E090932A04809329046091430431
:100320007091440480914504909146046F5F7F4F23
:100330008F4F9F4F60934304709344048093450410
:10034000909346040E94F92220914704309148047A
:100350004091490450914A040E94AF2360933F04A6
:10036000709340048093410490934204FF90EF9077
:10037000DF90CF90BF90AF909F908F900895CF93D4
:10038000DF9387E2E9E2F4E0DF011D928A95E9F765
:1003900080E090E0A0E8BFEB80934B0490934C0486
:1003A000A0934D04B0934E048DEC9CECACE4BEE302
:1003B0008093470490934804A0934904B0934A045F
:1003C000EDE2F4E086E999E3ACEEB0ED8083918351
:1003D000A283B3838AE091ECA7E4B2E18093310475
:1003E00090933204A0933304B09334048BE890ECE0
:1003F000A0EFB4EE8093350490933604A0933704B5
:10040000B093380483E99BE2A3E0BBE68093390410
:1004100090933A04A0933B04B0933C04AEE8B2E05E
:10042000B0932C04A0932B048CE892E08D939C93C2
:100430008BEF91E090938D0280938C02ADE3B4E05A
:10044000B0939302A0939202F0939102E0939002F2
:100450008FE394E09093950280939402EAE7F2E0B0
:1004600082E1EF0119928A95E9F7ED93FC938EE012
:1004700090E0918380838AE391E090937D02809362
:100480007C028EE191E090937F0280937E028AE06D
:1004900091E0909383028093820261E08091560103
:1004A0000E94061661E080915A010E94061661E0E2
:1004B00080915E010E94061661E080916201DF91E9
:1004C000CF910C9406160895CF93DF93CDB7DEB786
:1004D0002A970FB6F894DEBF0FBECDBFAC01CB019B
:1004E00060E070E049835A836B837C83AA2797FD81
:1004F000A095BA2F8D839E83AF83B8879E01275F17
:100500003F4FAE014F5F5F4F68E070E080919F0208
:100510009091A0020E94ED20811108C081E0298500
:100520003A852830310519F480E001C081E02A962F
:100530000FB6F894DEBF0FBECDBFDF91CF91089507
:100540000F931F93CF93DF9300D0CDB7DEB78B010E
:100550009E012F5F3F4FAC0180919F029091A002BE
:100560000E94ED20811108C081E029813A81201785
:10057000310719F480E001C081E00F900F90DF9106
:10058000CF911F910F910895CF93DF93EC011092BB
:10059000A3021092A202AC0160E070E0CB010E94C5
:1005A000310EAE0161E070E080E090E00E94310E1B
:1005B00080919F029091A002DF91CF910C943B21FA
:1005C000EF92FF920F931F93CF93DF9300D0CDB79D
:1005D000DEB78C0180919D0290919E028017910759
:1005E000B4F580919B0290919C02009731F00E949B
:1005F000EC2410929E0210929D02C8010E94542485
:1006000090939C0280939B02892B19F4E12CF12C8E
:1006100018C010939E0200939D0219C02AE932E08F
:10062000AE014F5F5F4F61E070E080919F0290915B
:10063000A0020E942F20811107C089819A81E80EB3
:10064000F91EE016F10654F380E090E01FC0E12CA3
:10065000F12C20919B0230919C02E016F106ACF443
:100660002E0D3F1DAE014F5F5F4FB8016E197F0920
:1006700080919F029091A0020E942F208111E4CFCF
:1006800089819A81E80EF91EE4CFC9010F900F907D
:10069000DF91CF911F910F91FF90EF9008950F93ED
:1006A0001F93CF93DF93EB018A010EDF81110AC004
:1006B0000115110539F0BE01C801DF91CF911F91DD
:1006C0000F913ECFDF91CF911F910F910895CF925F
:1006D000DF92EF92FF92CF93DF93CDB7DEB72897EB
:1006E0000FB6F894DEBF0FBECDBF6B01E12CF12C2D
:1006F000C982DA82EB82FC822D833E834F83588746
:10070000AE014F5F5F4F68E070E0C9DF28960FB61B
:10071000F894DEBF0FBECDBFDF91CF91FF90EF9079
:10072000DF90CF9008950F931F93CF93DF93EC0149
:100730008B010E942B209093A00280939F02009730
:1007400041F0A801BE010E94B01FEC01009719F40E
:100750000CC0CEEFD1E080919F029091A0020E9448
:100760002E201092A00210929F02CE01DF91CF9115
:100770001F910F91089580919F029091A0020C9477
:1007800028206F927F928F929F92AF92BF92CF92CA
:10079000DF92EF92FF920F931F93CF93DF9300D0DE
:1007A00000D000D0CDB7DEB76B017C014A0180914B
:1007B000A302882309F441C09401B701A601CE0128
:1007C00001960E94C01289819A8118161906ACF50B
:1007D000A12CB12C00E010E089819A81081719073B
:1007E0005CF76B807C806A0C7B1CF30160817181FB
:1007F00082819381A5DE81111EC0F3016481758120
:10080000161617062CF4868197819ADE811113C083
:10081000C801880F991FED81FE81E80FF91FB7010C
:10082000A601808191810E94630E0F5F1F4FF8E047
:10083000AF0EB11CD1CFC401A7DE26960FB6F89437
:10084000DEBF0FBECDBFDF91CF911F910F91FF9003
:10085000EF90DF90CF90BF90AF909F908F907F9060
:100860006F900895CF93DF93EC01AC0160E070E0EE
:10087000CB0187DFAE0161E070E080E090E0DF91C6
:10088000CF917FCFCF9380919F029091A0020E9441
:100890008C1FC82F811109C060E070E0CB0167D5C3
:1008A00061E070E080E090E062D58C2FCF910895F8
:1008B0000F931F9389019A01AB01BC0180919F02A4
:1008C0009091A0020E943A211F910F9108954F929A
:1008D0005F926F927F928F929F92AF92BF92CF92D0
:1008E000DF92EF92FF920F931F93CF93DF93CDB7D9
:1008F000DEB766970FB6F894DEBF0FBECDBF4C01D2
:100900005B018A018091A302882369F08091A30290
:10091000882309F4BDC21A821982E12CF12C78E0F7
:10092000C72ED12C14C063EA72E080919F0290918F
:10093000A0020E948E1F8111ABC2E8CFE20EF31E0F
:10094000E114F104D9F088E0E816F104BCF429E0E0
:1009500030E02C0F3D1F2E0D3F1DAE014F5F5F4F4E
:10096000B6016E197F0980919F029091A0020E94AA
:100970002F2029813A81882309F388C21216130691
:100980000CF086C28091A202811104C019861A86D9
:100990001B861C8689859A85AB85BC85803191052F
:1009A00008F076C2FC01EC5CFF4F0C943424D401B7
:1009B0001696ED91FC91179780819181A281B38168
:1009C00089839A83AB83BC83AE014F5F5F4F64E042
:1009D00070E085E190E06CC18D859E85F1DD00972A
:1009E00031F42FEF3FEFA90161E070E00EC0FC0190
:1009F000C080D180E280F380A501C701B6010E94CA
:100A0000E60DA701960160E070E08DE190E03CC248
:100A10008D859E85D5DD009721F42FEF3FEFA9014D
:100A20000FC0DC01CD90DD90ED90FD90AD01970100
:100A30008601B501C401B1D5A7019601882319F03B
:100A400061E070E002C060E070E08BE190E01CC209
:100A50008D859E85B5DD009721F42FEF3FEFA9012D
:100A60000EC0FC01C190D190E190F190BF01A701AF
:100A70009601C40187D7A7019601882319F061E088
:100A800070E002C060E070E08CE190E0FDC1D40154
:100A90001496ED91FC911597E080F180F7010281A9
:100AA0001381A080B18060E1462E512C612C712C05
:100AB00049825A826B827C8288E090E0A0E0B0E0BC
:100AC0008D839E83AF83B8879E012F5E3F4FAE011B
:100AD0004F5F5F4F68E070E080919F029091A002AD
:100AE0000E94ED20882319F0E12CF12CAEC08989F9
:100AF0009A890897C9F7D701CD90DC90B8E0CB0E62
:100B0000D11CCC0CDD1CCC0CDD1CC6010E94542475
:100B10007C01009749F349825A826B827C82C6012C
:100B2000AA2797FDA095BA2F8D839E83AF83B887A0
:100B30009E012F5E3F4FAE014F5F5F4F68E070E058
:100B400080919F029091A0020E94ED2081117DC0B2
:100B500089899A89089709F078C0D4011296ED9195
:100B6000FC9113974081518162817381D7014D932C
:100B70005D936D937C931397448155816681778152
:100B800014964D935D936D937C9317974085518593
:100B90006285738518964D935D936D937C931B9737
:100BA00084859585A685B785F70184879587A6876F
:100BB000B787108A118A128A138A84E090E0A0E035
:100BC000B0E0848B958BA68BB78B80917801909148
:100BD0007901A0E0B0E0808F918FA28FB38FC50123
:100BE000AA2797FDA095BA2F848F958FA68FB78FD0
:100BF000B801A701405E5F4F20E030E02A153B05B9
:100C00007CF4DB018D919D91BD01A0E0B0E0FA0183
:100C100081939193A193B193AF012F5F3F4FEECF9B
:100C20009E012F5E3F4FA701B60180919F029091D8
:100C3000A0020E94ED20811108C089899A898C1533
:100C40009D0519F481E08093A202C70166960FB654
:100C5000F894DEBF0FBECDBFDF91CF911F910F91F2
:100C6000FF90EF90DF90CF90BF90AF909F908F90CC
:100C70007F906F905F904F900C94EC248D859E85B3
:100C8000AF85B8890097A105B10529F199DC0097D6
:100C900089F481E090E0A0E0B0E089839A83AB839F
:100CA000BC83AE014F5F5F4F64E070E082E190E093
:100CB000F6DCEEC0BC01C401ACD219821A821B82E0
:100CC0001C82AE014F5F5F4F64E070E082E190E014
:100CD000E6DC8111DDC081E08093A102D9C0D4019E
:100CE0001496ED91FC9115970190F081E02D00850F
:100CF00011850115110509F460C0D801ED90FC9033
:100D0000C280D38020E030E060E070E080E090E0DE
:100D10008E159F050CF5F801A281B381A20FB31FB8
:100D20001296ED91FC911397EE0FFF1FEC0DFD1D38
:100D30000190F081E02D16960D90BC91A02DEA9FB8
:100D4000A001EB9F500DFA9F500D1124640F751FE9
:100D50000196285F3F4FDCCF83E190E0B5DB811146
:100D600097C0812C912CA12CB12CAE14BF040CF097
:100D70008FC0D8011296ED91FC911397E80DF91DE3
:100D8000A281B381AA0FBB1FAC0DBD1D2D913C915B
:100D900086819781289FB001299F700D389F700D23
:100DA000112480819181CCDBB8E08B0E911C8111E4
:100DB0006FC0EFEFAE1ABE0AD8CF60E070E083E1FB
:100DC00090E082DB65C040E050E060E070E081E1EF
:100DD00090E065DC81115CC0C12CD12C7601C7018B
:100DE000B601C2D380912C03882321F0A501C7014D
:100DF000B601C7DCA501C701B601DDD2FFEFCF1AEE
:100E0000DF0AEF0AFF0A82E0C816D104E104F10408
:100E100031F71092A3021092A20280919F0290914A
:100E2000A0020E94991F34C081E090E090932E03AD
:100E300080932D0340E050E060E070E086E190E0B8
:100E400037CF81E0D8018C9323C08D859E85B8DB98
:100E5000009731F42FEF3FEFA90161E070E012C07D
:100E6000FC012081318142815381CA01B9012B8B60
:100E70003C8B4D8B5E8B00D72B893C894D895E89DD
:100E800060E070E08EE190E022DC02C0C5017CDB16
:100E900066960FB6F894DEBF0FBECDBFDF91CF913F
:100EA0001F910F91FF90EF90DF90CF90BF90AF9088
:100EB0009F908F907F906F905F904F900895CF920A
:100EC000DF92EF92FF92CF93DF93EC01C12CD12CF4
:100ED0007601C701B60148D3AE01C701B60151DCA6
:100EE000AE01C701B60167D280919B0290919C022E
:100EF000009731F00E94EC2410929C0210929B0209
:100F00008FEFC81AD80AE80AF80A82E0C816D10496
:100F1000E104F104F1F68091A202882359F040E047
:100F200050E060E070E084E190E0B9DBC82F1092FF
:100F3000A20201C0C0E08091A302882341F0109278
:100F4000A30221E030E03093790120937801809171
:100F50009F029091A0020E949C1F80919F029091FD
:100F6000A0020E942E208C2FDF91CF91FF90EF9056
:100F7000DF90CF900895CF93DF93EC01AC0160E058
:100F800070E0CB010E943712AE0161E070E080E0BA
:100F900090E0DF91CF910C94371260E070E0CB01CC
:100FA0000E949C1261E070E080E090E00C949C1242
:100FB000CF92DF92EF92FF920F931F93CF93DF9325
:100FC000EC016A017B0100E010E09801A5D601E088
:100FD00010E020E030E0B701A601CE019DD6DF9100
:100FE000CF911F910F91FF90EF90DF90CF900895D8
:100FF000EF92FF920F931F93CF93DF93DC01EA01EF
:10100000F90114968D919C91159712960D911C9152
:101010001397080F191F2881398118964D915C91FB
:1010200019974217530728F04D915C911197452B62
:1010300059F17801E21AF30A18964D915C911997CB
:10104000481B590B4E0D5F1D46175707B4F1A901F8
:10105000460F571F4017510700F1F182E08233839A
:1010600022836E197F0975836483161617061CF098
:1010700030E020E002C0382F292F36832783680F05
:10108000791F7983688317C018968D919C91199761
:10109000821B930B8617970784F0718360833383D9
:1010A0002283158214821782168288819981860F85
:1010B000971F9983888380E001C081E0DF91CF9101
:1010C0001F910F91FF90EF900895CF93DF9324E449
:1010D000269FE001279FD00D1124CC55DD4F8AA912
:1010E0009BA9009721F00E94EC241BAA1AAA8EA9A2
:1010F0009FA9009711F00E94EC241B8A1A8A1E8A6D
:101100001F8A188E198E1A8E1B8E1C8E1D8E1E8E97
:101110001F8E18A219A281E090E09BA38AA31DA2B2
:101120001CA21EA21FA218A619A61BA61AA61DA6BF
:101130001CA61EA61FA618AA19AA1BAA1AAA1DAA8F
:101140001CAA1FAA1EAA19AE18AE1AAE1BAE1CAE60
:101150001DAEFE01FE961082118212821382CE5BBA
:10116000DF4F19821882DF91CF910895CF93DF93DB
:10117000FB01DC01CD91DC91AE81BF818081918149
:1011800023E0880F991F2A95E1F712960D90BC91E4
:10119000A02DA80FB91F6D917C911197848595851D
:1011A000880F991F0A80DB81C02DC80FD91F0990B5
:1011B000D881C02D14968D919C911597892B19F08B
:1011C00082E090E002C081E090E08C9F90018D9FD2
:1011D000300D9C9F300D112480859185289FD00172
:1011E000299FB00D389FB00D11240480F581E02DAA
:1011F0002E9FC0012F9F900D3E9F900D1124860FB2
:10120000971FFA0191838083B383A283DF91CF91EB
:1012100008952F923F924F925F926F927F928F929A
:101220009F92AF92BF92CF92DF92EF92FF920F9375
:101230001F93CF93DF9300D000D000D0CDB7DEB79F
:10124000DC011496ED91FC9115970190F081E02D51
:10125000808591859A838983A281B381BC83AB8386
:10126000DB018D909D90AD90BD90C12CD12C76016D
:10127000C814D904EA04FB040CF060C014964D9025
:101280005D906D907C90179718964D915D916D9142
:101290007C911B97FD017096FE83ED838D919C914F
:1012A000119763E0880F991F6A95E1F7E981FA8148
:1012B00022813381280F391FF901208031801C964B
:1012C000ED91FC911D97EE0FFF1F8B819C81E80F24
:1012D000F91F0190F081E02DD90114968D919C9118
:1012E0001597892B19F082E090E002C081E090E030
:1012F0008E9F90018F9F300D9E9F300D1124249F53
:101300008001259F100D349F100D1124249DC001D4
:10131000259D900D349D900D1124A8016D817E8135
:10132000820D931D0E947B25AD81BE81A00FB11F50
:10133000EFEFCE1ADE0AEE0AFE0A9ACF26960FB615
:10134000F894DEBF0FBECDBFDF91CF911F910F91FB
:10135000FF90EF90DF90CF90BF90AF909F908F90D5
:101360007F906F905F904F903F902F900895CF9314
:10137000DF9324E4269FF001279FF00D1124EC5504
:10138000FD4FDB01AA58BE4F3C91332329F0EF01FA
:1013900019922A95E9F71C921482158216821782F7
:1013A0001186108613861286118A108A1786168671
:1013B000DF91CF918ACE2F923F924F925F926F92A0
:1013C0007F928F929F92AF92BF92CF92DF92EF92D5
:1013D000FF920F931F93CF93DF9300D000D0CDB730
:1013E000DEB76B017C011A0184E48C9D90018D9D18
:1013F000300D11242C553D4F3C832B83F901848102
:101400009581A681B781892B8A2B8B2B09F495C0F6
:10141000A12CB12C412C512C3201AB81BC811496F2
:101420004D915D916D917C91179718968D919C913E
:10143000199744165506660677068CF5FC01EA0DE9
:10144000FB1D32812381032F122F812C912C8214BA
:101450009304C4F4D801ED91FC91309769F0848134
:1014600095812A8339830E94EC24F801808191813F
:101470000E94EC2439812A81FFEF8F1A9F0A0E5FA8
:101480001F4FE5CF832F922F0E94EC242FEF421A9B
:10149000520A620A720A34E0A30EB11CBECF0E9447
:1014A000EC24EB81FC8182859385892BE1F0A12CD2
:1014B000B12C00E010E0AB81BC811A968D919C911B
:1014C0001B97021513056CF4FC01EA0DFB1D8481CA
:1014D00095810E94EC240F5F1F4FFEE0AF0EB11C00
:1014E000EACF0E94EC24EB81FC81808991890E94E3
:1014F000EC24AB81BC811E968D919C911F970E941C
:10150000EC24C701B601E1DDC701B6010F900F90D1
:101510000F900F90DF91CF911F910F91FF90EF905F
:10152000DF90CF90BF90AF909F908F907F906F9003
:101530005F904F903F902F901ACF0F900F900F9089
:101540000F90DF91CF911F910F91FF90EF90DF905F
:10155000CF90BF90AF909F908F907F906F905F9053
:101560004F903F902F90089524E4269FF001279FED
:10157000F00D1124EC55FD4F828993890497029751
:1015800058F485E090E0938B828B8FEF9FEFDC0126
:10159000828F938FA48FB58F08952F923F924F9291
:1015A0005F926F927F928F929F92AF92BF92CF92F3
:1015B000DF92EF92FF920F931F93CF93DF93CDB7FC
:1015C000DEB7AA970FB6F894DEBF0FBECDBF9AA3C1
:1015D00089A31B016A010B8B1C8B2D8B3E8B84E432
:1015E0002B893C89829F8001839F100D11240C550B
:1015F0001D4F2B893C894D895E89D8012D933D93E0
:101600004D935C931397AB016B897C898D899E897F
:10161000D2DEF60141915191619171917F01CA0130
:10162000D80114964D935D936D937C93179764E066
:1016300070E00E943A24F80191878087892B09F491
:101640006DC118A21F8E1B8E1C8E1D8E1E8EF80162
:1016500084819581A681B7812B8D3C8D4D8D5E8DCA
:10166000281739074A075B070CF0D1C0D801189634
:101670000D90BC91A02D2F8D38A1A20FB31FBA8B56
:10168000A98BD7018D919C91880F991FA9A1BAA10F
:10169000ED91FC91E80FF91F80819181E989FA8928
:1016A00091838083D70114962D913D914D915C914A
:1016B00017972BA33CA34DA35EA3B8E0EB0EF11C40
:1016C00062E070E0C1010E943A24E989FA899383BB
:1016D0008283892B09F422C11F8A188E198E1A8ED3
:1016E0002F89388D498D5A8D8BA19CA1ADA1BEA1AA
:1016F000281739074A075B070CF018C1D701CD90AE
:10170000DC90CC0CDD1CE989FA89A280B380AC0C9A
:10171000BD1C68E070E081E090E00E943A24D501B1
:101720008D939C93A989BA891296ED91FC91139798
:10173000EC0DFD1D808091808114910409F4EEC0B0
:10174000F7014481558166817781CA01D4014D93A7
:101750005D936D937C931397B8E0EB0EF11C64E0FE
:1017600070E00E943A24F40195838483892B09F464
:10177000D5C0A12CB12C412C512C3201F401808117
:101780009181A281B381481659066A067B0694F5B9
:10179000D4011496CD90DC901597CA0CDB1CF70190
:1017A000DE01119680E101900D928A95E1F7B0E19A
:1017B000EB0EF11CA601BE016F5F7F4FE9A1FAA1FC
:1017C00084819581D3DCD40116968D919C911797D5
:1017D000F60122813381820F931F17969C938E937B
:1017E0001697FFEF4F1A5F0A6F0A7F0A24E0A20ED6
:1017F000B11CC4CF2F89388D498D5A8D2F5F3F4F33
:101800004F4F5F4F2F8B388F498F5A8F69CF6EE0C4
:1018100070E0C1010E943A24D8011B969C938E93DC
:101820001A97612C712C812C912CA12CB12C442461
:101830004394512C821493040CF050C0F701419151
:101840005191619171917F01CA01D8011A96CD9091
:10185000DC901B97C60CD71C57FD60C0F601518267
:101860004082009791F04FA358A769A77AA70E94DA
:101870005424D60115969C938E9314974FA158A586
:1018800069A57AA5892B21F449C0F6011582148235
:10189000D60113965C934E93129714968D919C915A
:1018A000159717969C938E93169719969C938E93E3
:1018B00018971B961C921E921A9781E090E0452B78
:1018C000462B472B11F480E090E0A80EB91EBFEF25
:1018D0008B1A9B0AEEE06E0E711CACCFD8011D96E0
:1018E0001C921E921C97C501F3E0880F991FFA9570
:1018F000E1F70E945424F801918B808B892B71F0C1
:10190000C501880F991F0E945424D8011F969C93EB
:101910008E931E97892B11F080E01BC0A1016B896B
:101920007C898D899E8947DD81E013C02B8D3C8D9C
:101930004D8D5E8D2F5F3F4F4F4F5F4F2B8F3C8FF5
:101940004D8F5E8F2F8D38A12C5F3F4F38A32F8F87
:101950007ECEAA960FB6F894DEBF0FBECDBFDF9144
:10196000CF911F910F91FF90EF90DF90CF90BF909C
:10197000AF909F908F907F906F905F904F903F902F
:101980002F9008953F924F925F926F927F928F9225
:101990009F92AF92BF92CF92DF92EF92FF920F93FE
:1019A0001F93CF93DF93CDB7DEB764970FB6F8944C
:1019B000DEBF0FBECDBF4C01FB01298B3A8B4B8B99
:1019C0005C8B84E4829F8001839F100D11240A5454
:1019D0001D4F80819181D80113969C938E9312970D
:1019E000448155816681778114964D935D936D9303
:1019F0007C931797408551856285738518964D9322
:101A00005D936D937C931B9744855585668577859B
:101A10001C964D935D936D937C931F9740895189DC
:101A2000628973895C964D935D936D937C935F9708
:101A30007F01B4E1EB0EF11C141615060CF05DC02D
:101A4000CA01880F991F880F991F0E945424F8011A
:101A500091A380A3892B09F499C0A12CB12C412C0E
:101A6000512C320130E1332EB301A2012FEF421A83
:101A7000520A620A720AF801848D958DA68DB78D7F
:101A8000481759076A077B0764F5D8019096CD90EF
:101A9000DC909197CA0CDB1CF701DE011196832DB7
:101AA00001900D928A95E1F7B0E1EB0EF11CA601D1
:101AB000BE016F5F7F4FF4018481958157DBD801B0
:101AC00092968D919C919397F60122813381820F9A
:101AD000931F93969C938E939297F4E0AF0EB11C54
:101AE000C3CF82A193A10E945424D80195969C93C0
:101AF0008E939497892B09F449C0F70180819181D5
:101B0000A281B381AC01BD014D7F21E030E0452BC6
:101B1000462B472B11F020E030E0F801318B208B71
:101B20000197A109B10921E030E00297A105B105B3
:101B300010F020E030E0D80153963C932E9352975A
:101B4000F70184819581A681B781F801848B958BFB
:101B5000A68BB78B84859585A685B785B7FF10C002
:101B6000B095A095909581959F4FAF4FBF4F80A79F
:101B700091A7A2A7B3A714861586168617860DC04F
:101B8000F80110A611A612A613A607C069897A89C2
:101B90008B899C899ADA81E001C080E064960FB657
:101BA000F894DEBF0FBECDBFDF91CF911F910F9193
:101BB000FF90EF90DF90CF90BF90AF909F908F906D
:101BC0007F906F905F904F903F900895CF93DF93F9
:101BD00024E4269FF001279FF00D1124EC55FD4FC2
:101BE00010922C0315A614A620E030E080E090E0CF
:101BF000C1E0D0E08417950714F5A285B385A20F44
:101C0000B31F12966D917C911397161617069CF4CC
:101C100014966D917C91159717967C936E931697F9
:101C200019967C936E9318971B961C921E921A9786
:101C30001196DC93CE930196225F3F4FDBCF13A624
:101C400012A611AE10AEDF01DE961D921D921D92FE
:101C50001C92139782E090E0938B828BDF91CF915F
:101C6000089524E4269FF001279FF00D1124EC55E0
:101C7000FD4F138A128A9FCB24E4269FF001279FF1
:101C8000F00D1124EC55FD4F828993898130910527
:101C9000C8F08530910518F0059769F008958FEF29
:101CA0009FEFDC01828F938FA48FB58F85E090E04A
:101CB000938B828B08958FEF9FEFDC01828F938F40
:101CC000A48FB58F089524E4249FF001259FF00D83
:101CD0001124EC55FD4F2EE0AC01249FC001259F3F
:101CE000900D11240284F385E02DE80FF91F81E0A7
:101CF00080932C03828593859187808740855185C9
:101D00002681378181E090E04217530711F080E08F
:101D100090E09183808308952F923F924F925F923B
:101D20006F927F928F929F92AF92BF92CF92DF92EB
:101D3000EF92FF920F931F93CF93DF93CDB7DEB750
:101D4000C454D1090FB6F894DEBF0FBECDBF98AF13
:101D50008FAB4BA75CA76DA77EA723960CAF1DAFDB
:101D60002EAF3FAF239784E421962EAD3FAD219750
:101D7000829F1001839F300C1124C1018C559D4F0F
:101D80001C01DC011A960D90BC91A02D2596BFAFC9
:101D9000AEAF2597FC0182899389029709F018C19B
:101DA00086A597A5A0A9B1A9892B8A2B8B2B29F4ED
:101DB00084E090E0938B828B0BC1D101848995895B
:101DC000EFA9F8ADE817F90709F002C1D6960D9111
:101DD0001C91D7971AAE19AE412C512C3201F1014A
:101DE00086A597A5A0A9B1A9481659066A067B063B
:101DF0000CF0D0C0D101D2960D90BC91A02DE9ADD0
:101E0000FAADAE0FBF1FBAABA9AB12962D913C91A4
:101E100013973CAF2BAF36952795369527953EAF58
:101E20002DAFD101D8968D919C91D997892B09F42A
:101E300095C09696CD90DD90ED90FC90999718AB5B
:101E40000FA7E9A9FAA90190F081E02DFCABEBAB5B
:101E50001EAA1DAAEDA9FEA92DAD3EADE217F307FE
:101E60000CF07CC0D10192968D919C919397892B17
:101E700079F1EBA9FCA980809180A280B380A701B1
:101E80009601C501B4010E94AB2387FD0CC0A701D8
:101E90009601AFA5B8A96D917D918D919C910E94FD
:101EA000C92287FD7CC0A7019601C501B4010E942B
:101EB000AB2318166CF4A7019601EFA5F8A9608171
:101EC0007181828193810E94C922882309F467C0AD
:101ED000D10194968D919C919597892B71F1EBA9E5
:101EE000FCA980809180A280B380A7019601C501E2
:101EF000B4010E94C92287FF0CC0A7019601AFA5BB
:101F0000B8A96D917D918D919C910E94AB2387FF23
:101F100046C0A7019601C501B4010E94C9228111E2
:101F20000CC0A7019601EFA5F8A96081718182819B
:101F300093810E94AB23181694F12DA93EA92F5F1F
:101F40003F4F3EAB2DAB8FA598A9049698AB8FA7BA
:101F5000ABA9BCA91496BCABABAB7CCFA9A9BAA961
:101F60006D917C914BAD5CADC8010E947B258DAD20
:101F70009EAD880F991F880F991F080F191FBFEF7B
:101F80004B1A5B0A6B0A7B0AE9ADFAAD3496FAAFDD
:101F9000E9AF25CF81E090E091AF80AF19C0F101AA
:101FA000868D978DA0A1B1A1892B8A2B8B2B09F04F
:101FB0003AC284E090E0D10153969C938E9352975D
:101FC000DE968D919C91DF979B969C938E939A972A
:101FD000D10152968D919C9153978230910589F44D
:101FE000DA968D919D910D90BC91A02D1816190631
:101FF0001A061B060CF021C2E1E0F0E0F8ABEFA7F7
:1020000005C0049709F019C218AA1FA68EE02FA9CF
:1020100038AD829F5001839FB00C112425968EAD60
:102020009FAD2597A80EB91ED50112964D915C91D2
:1020300013974115510509F400C216968D919C9194
:1020400017979AA789A7FE01319684E1DF011D92B7
:102050008A95E9F723968CAD9DADAEADBFAD2397C4
:10206000898B9A8BAB8BBC8BAFA5B8A9AB2B09F432
:1020700048C04101BEE38B0E911CF401C080D180A9
:10208000E280F380F10182AD93ADA4ADB5ADC81689
:10209000D906EA06FB06A9F5D50114966D917C9147
:1020A000159718960D90BC91A02D14960D911D9129
:1020B0002D913C911797C8010D8B1E8B2F8B388F5C
:1020C00008969E8B8D8BF50120853185280F391F51
:1020D0003187208780859185460F571F841B950B7C
:1020E00097FD04C0680F791F71876087F1E0CF1AF0
:1020F000D108E108F108D401CD92DD92ED92FC9275
:1021000013979E012B5E3F4FAE01475D5F4F64E129
:1021100070E0C5010E94F807082F10E001151105B5
:1021200009F06DC18CE090E0A0E0B0E08D839E836B
:10213000AF83B8879E01235E3F4FAE01475D5F4F7F
:1021400064E070E0C5010E94F807082F10E0011557
:10215000110509F054C180E190E0A0E0B0E08D836A
:102160009E83AF83B8874D8D5E8DBE01655D7F4FC9
:102170008F8D98A10E947B258BA19CA1009761F077
:102180006D8D7E8DEBE2F0E0EC0FFD1F6E0F7F1F7B
:1021900049A15AA10E947B251DA21EA21FA218A61A
:1021A0002FA938AD220F331F3EAB2DABCDA0DEA043
:1021B000EFA0F8A4F10184819581A681B781C816AA
:1021C000D906EA06FB060CF0CBC0D1011896ED91BA
:1021D000FC911997C601880F991F880F991FE80F66
:1021E000F91FA081B1818C91882309F4AFC083309D
:1021F00009F4ACC00280F381E02D2DA93EA9E20FC5
:10220000F31F808191819CAB8BAB892B09F49EC01D
:1022100089859A85AB85BC850196A11DB11D8987ED
:102220009A87AB87BC879E01235E3F4FAE01475D17
:102230005F4F64E070E0C5010E94F80790E00097EE
:1022400009F0DCC08D819E81AF81B8850496A11D07
:10225000B11D8D839E83AF83B8874D8D5E8DBE018A
:102260006B5D7F4F8F8D98A10E947B258BA19CA1D8
:10227000009761F06D8D7E8DA5E2B0E0AC0FBD1FC3
:102280006A0F7B1F49A15AA10E947B251AAA19AA8D
:10229000412C512C3201EBA9FCA980819181A281B2
:1022A000B381481659066A067B060CF04FC0EBA9AD
:1022B000FCA98480958029A93AA9820E931ED40195
:1022C00012966D917C9113979E01235E3F4FAE0154
:1022D000475D5F4FC5010E94F80790E0009709F045
:1022E0008DC0F40142815381662757FD6095762F9A
:1022F0008D819E81AF81B885840F951FA61FB71F62
:102300008D839E83AF83B887608171814D8D5E8D93
:102310008F8D98A10E947B258BA19CA1009759F0DD
:10232000D4016D917C912D8D3E8D620F731F49A15B
:102330005AA10E947B25BFEF4B1A5B0A6B0A7B0AEE
:10234000E9A9FAA93496FAABE9ABA5CFFFEFCF1A0A
:10235000DF0AEF0AFF0ACDA2DEA2EFA2F8A626CF7F
:1023600089859A85AB85BC85892B8A2B8B2B09F4B3
:1023700046C08AE190E0A0E0B0E089839A83AB8315
:10238000BC832FA938ADC901AA2797FDA095BA2F04
:102390008D879E87AF87B88B4D895E89BE016F5F41
:1023A0007F4F8F89988D0E947B258B8D9C8D009708
:1023B00061F06D897E89A1E0B0E0AC0FBD1F6A0FAE
:1023C0007B1F498D5A8D0E947B2589A59AA5F50111
:1023D00097838683118210822FA538A9232B69F158
:1023E000F101FE9680819181A281B3810196A11DA8
:1023F000B11D80839183A283B3831FC08C018FA5FD
:1024000098A9892BD1F4012BC1F081E090E0D10192
:102410009D969C938E939C9785E090E053969C9319
:102420008E9352970AC083E090E0F101938B828BE8
:1024300081E090E093A782A7CBCDCC5BDF4F0FB6B6
:10244000F894DEBF0FBECDBFDF91CF911F910F91EA
:10245000FF90EF90DF90CF90BF90AF909F908F90C4
:102460007F906F905F904F903F902F900895CF9204
:10247000DF92EF92FF920F931F93CF93DF9324E4A9
:10248000269FE001279FD00D1124CC55DD4F2A89CE
:102490003B892115310509F446C021303105A9F4E5
:1024A000CAA4DBA496012F5F3F4F3BA72AA7EE24C7
:1024B000D7FCE094FE2C0A8D1B8D2C8D3D8DC01613
:1024C000D106E206F30679F581DB8A899B890397B9
:1024D00051F54AA55BA5CA0101969BA78AA7662765
:1024E00057FD6095762F8E8D9F8DA8A1B9A14817B5
:1024F00059076A077B07BCF08EAD9FAD9BA78AA7E3
:1025000084E090E09B8B8A8B8AAD9BADACADBDAD7A
:10251000181619061A061B0634F4CE5BDF4F81E04D
:1025200090E099838883DF91CF911F910F91FF9065
:10253000EF90DF90CF90089524E4269FF001279F2D
:10254000F00D1124EC55FD4F828993890497B9F45D
:1025500042A553A54F5F5F4F53A742A7662757FD7C
:102560006095762F86899789A08DB18D4817590778
:102570006A077B0721F485E090E0938B828B0895B6
:102580002F923F924F925F926F927F928F929F9283
:10259000AF92BF92CF92DF92EF92FF920F931F9371
:1025A000CF93DF9300D000D0CDB7DEB749835A83F5
:1025B0006B837C83490124E4249F8001259F100DB7
:1025C00011240C551D4FD80152966D907C90539755
:1025D0009301245031092230310508F0BCC01D960A
:1025E0001C921E921C97FC0111821082138212828F
:1025F000A12CB12C20E030E0281539050CF067C083
:10260000D8011A962D903C901B972A0C3B1CF10187
:1026100040815181452B09F054C06085718542800D
:102620005380468157811C96ED90FC901D97670161
:10263000F3E0CC0CDD1CFA95E1F75096ED91FC919E
:102640005197EC0DFD1D6701CC0CDD1C1E96ED9025
:10265000FC901F97EC0CFD1CD7012D933C93D801E7
:102660001C96ED90FC901D97BFEFEB1AFB0AD8016A
:102670001D96FC92EE921C9773836283D1011B9688
:102680005C934E931A976417750748F4461B570BD3
:1026900051834083158214821782168212C0D101A1
:1026A0001496CD90DC9015977601E40CF51CE61A93
:1026B000F70AF182E0824C195D0955834483D78281
:1026C000C6822F5F3F4FBEE0AB0EB11C95CFF80125
:1026D00024853585DC0111963C932E9340895189E0
:1026E00013965C934E9312974685578515965C9387
:1026F0004E931497232BD1F5B5E06B167104B1F509
:1027000010922C03828D938DA48DB58DAE014F5FF9
:102710005F4F64E070E08F3F9F4FAF4FBF4F59F462
:1027200080E290E00E944F0369817A818B819C81D5
:10273000A40197DA1BC08FE190E00E944F03D801FB
:102740009B961C921E929A9781E090E053969C93E0
:102750008E9352970BC0F80115861486DC011196F2
:102760001C921E9213961C921E9212970F900F901D
:102770000F900F90DF91CF911F910F91FF90EF90ED
:10278000DF90CF90BF90AF909F908F907F906F9091
:102790005F904F903F902F900895EF92FF920F938C
:1027A0001F93CF93DF937C018B01EA010E94BB034F
:1027B000811121C08091780190917901049711F1E4
:1027C00083E090E090937901809378011BC0888129
:1027D0008111F0CF28ED38EB45E050E060E070E08B
:1027E000CB010E945804AE01B801C7010E946704E2
:1027F000C8010E94320480912D0390912E03892BF1
:1028000031F3D8CFDF91CF911F910F91FF90EF90CF
:102810000895CF93DF93EB012091780130917901F6
:102820002430310539F00E946704CE01DF91CF9149
:102830000C943204DF91CF9108950C94D8070C9436
:10284000CD070C94BB070C9442040C945F070895C9
:1028500060E070E080E090E00C9493030895AF9204
:10286000BF92CF92DF92EF92FF920F931F93CF937D
:10287000DF9300D0CDB7DEB75C0169017A018B012F
:1028800080E090E0C114D104E104F104F1F0C1143E
:10289000D10421E0E206F10410F4A60102C04FEFDA
:1028A0005FEF9E012F5F3F4FB801C5010E94462197
:1028B0008F3F2FEF920749F029813A81C21AD30A3C
:1028C000E108F108020F131FDDCF0F900F90DF9189
:1028D000CF911F910F91FF90EF90DF90CF90BF901D
:1028E000AF900895AF92BF92CF92DF92EF92FF9296
:1028F0000F931F93CF93DF9300D0CDB7DEB75C016A
:1029000069017A018B0180E090E0C114D104E104F7
:10291000F104F1F0C114D10421E0E206F10410F455
:10292000A60102C04FEF5FEF9E012F5F3F4FB8013E
:10293000C5010E9484218F3F2FEF920749F0298122
:102940003A81C21AD30AE108F108020F131FDDCF42
:102950000F900F90DF91CF911F910F91FF90EF900B
:10296000DF90CF90BF90AF90089508951F920F927F
:102970000FB60F9211242F933F934F935F936F9352
:102980007F938F939F93AF93BF93EF93FF93809128
:102990002F0390913003892B29F0E0912F03F091C0
:1029A00030030995FF91EF91BF91AF919F918F9166
:1029B0007F916F915F914F913F912F910F900FBE3B
:1029C0000F901F9018951F920F920FB60F9211241F
:1029D0002F933F934F935F936F937F938F939F9327
:1029E000AF93BF93EF93FF938091310390913203A4
:1029F000892B29F0E0913103F09132030995FF9181
:102A0000EF91BF91AF919F918F917F916F915F9166
:102A10004F913F912F910F900FBE0F901F901895DF
:102A20001F920F920FB60F9211242F933F938F9303
:102A30009F93AF93BF938091340390913503A091FE
:102A40003603B09137033091330323E0230F2D3742
:102A500020F40196A11DB11D05C026E8230F0296A2
:102A6000A11DB11D2093330380933403909335034C
:102A7000A0933603B09337038091380390913903C4
:102A8000A0913A03B0913B030196A11DB11D809323
:102A9000380390933903A0933A03B0933B03BF915B
:102AA000AF919F918F913F912F910F900FBE0F90FB
:102AB0001F9018953FB7F89480913803909139038F
:102AC000A0913A03B0913B0326B5A89B05C02F3FC8
:102AD00019F00196A11DB11D3FBF6627782F892FE0
:102AE0009A2F620F711D811D911D42E0660F771FA5
:102AF000881F991F4A95D1F70895CF92DF92EF92E0
:102B0000FF92CF93DF936B017C01D4DFEB01C11403
:102B1000D104E104F10479F028DFCCDF6C1B7D0BDC
:102B2000683E7340A0F381E0C81AD108E108F108BB
:102B3000C851DC4FECCFDF91CF91FF90EF90DF9049
:102B4000CF900895789484B5826084BD84B5816007
:102B500084BD85B5826085BD85B5816085BDEEE6A5
:102B6000F0E0808181608083E1E8F0E01082808184
:102B700082608083808181608083E0E8F0E08081F2
:102B800081608083E1EBF0E0808184608083E0EB12
:102B9000F0E0808181608083EAE7F0E080818460FA
:102BA0008083808182608083808181608083808156
:102BB000806880831092C1000895833081F028F4EA
:102BC000813099F08230A1F008958730A9F08830E3
:102BD000B9F08430D1F4809180008F7D03C0809162
:102BE00080008F7780938000089584B58F7702C02E
:102BF00084B58F7D84BD08958091B0008F7703C028
:102C00008091B0008F7D8093B0000895CF93DF93C3
:102C100090E0FC01E456FF4F2491FC01E055FF4F8A
:102C20008491882349F190E0880F991FFC01E253B9
:102C3000FF4FA591B4918C539F4FFC01C591D49146
:102C40009FB7611108C0F8948C91209582238C93D2
:102C5000888182230AC0623051F4F8948C91322F1B
:102C6000309583238C938881822B888304C0F894C9
:102C70008C91822B8C939FBFDF91CF9108950F93FE
:102C80001F93CF93DF931F92CDB7DEB7282F30E08D
:102C9000F901E857FF4F8491F901E456FF4F149171
:102CA000F901E055FF4F04910023C1F0882319F08A
:102CB000698383DF6981E02FF0E0EE0FFF1FEC53A3
:102CC000FF4FA591B4919FB7F8948C91611103C007
:102CD0001095812301C0812B8C939FBF0F90DF91B2
:102CE000CF911F910F910895FC01818D228D90E06D
:102CF000805C9F4F821B91098F7399270895FC0177
:102D0000918D828D981731F0828DE80FF11D858DA0
:102D100090E008958FEF9FEF0895FC01918D828DD3
:102D2000981761F0828DDF01A80FB11D5D968C911F
:102D3000928D9F5F9F73928F90E008958FEF9FEF2A
:102D40000895FC01848DDF01A80FB11DA35ABF4F68
:102D50002C91848D90E001968F739927848FA6899A
:102D6000B7892C93A089B1898C9180648C93938DC1
:102D7000848D981306C00288F389E02D80818F7DB1
:102D800080830895CF93DF93EC01888D8823C1F071
:102D9000EA89FB89808185FD05C0A889B9898C9164
:102DA00086FD0EC00FB607FCF5CF808185FFF2CF00
:102DB000A889B9898C9185FFEDCFCE01C2DFE8CF1C
:102DC000DF91CF910895CF92DF92FF920F931F93DF
:102DD000CF93DF931F92CDB7DEB76C01DC015B961A
:102DE0009C915B975C968C915C97981307C050966A
:102DF000ED91FC915197808185FD31C0F601038DE5
:102E000010E00F5F1F4F0F731127F02EF601848D16
:102E1000F81210C00FB607FCF9CFD6015096ED910D
:102E2000FC915197808185FFF1CFC601698389DFCD
:102E30006981ECCF838DE80FF11DE35AFF4F60836A
:102E4000D6015B960C935B975296ED91FC9153974C
:102E500080818062808381E058968C930DC0D6017A
:102E60005696ED91FC91579760835096ED91FC91A9
:102E7000519780818064808381E090E00F90DF91A2
:102E8000CF911F910F91FF90DF90CF900895BF9247
:102E9000CF92DF92EF92FF92CF93DF93EC016A0122
:102EA0007B01B22EE889F98982E08083411581EEA9
:102EB000580761057105A1F060E079E08DE390E0CD
:102EC000A70196010E94122421503109410951099C
:102ED0005695479537952795211580E1380798F045
:102EE000E889F989108260E874E88EE190E0A70132
:102EF00096010E9412242150310941095109569529
:102F0000479537952795EC85FD853083EE85FF85C0
:102F10002083188EEC89FD89B082EA89FB89808143
:102F200080618083EA89FB89808188608083EA8967
:102F3000FB89808180688083EA89FB8980818F7D1D
:102F40008083DF91CF91FF90EF90DF90CF90BF9083
:102F500008951F920F920FB60F9211242F938F9303
:102F60009F93EF93FF93E0914C03F0914D03808189
:102F7000E0915203F091530382FD12C09081809141
:102F800055038F5F8F7320915603821751F0E091A4
:102F90005503F0E0E45CFC4F958F8093550301C02E
:102FA0008081FF91EF919F918F912F910F900FBE94
:102FB0000F901F9018951F920F920FB60F92112429
:102FC0002F933F934F935F936F937F938F939F9331
:102FD000AF93BF93EF93FF938CE393E0B2DEFF9147
:102FE000EF91BF91AF919F918F917F916F915F9181
:102FF0004F913F912F910F900FBE0F901F901895FA
:1030000010923F0310923E0388EE93E0A0E0B0E000
:103010008093400390934103A0934203B0934303F2
:103020008DE392E090933D0380933C0385EC90E028
:10303000909349038093480384EC90E090934B0372
:1030400080934A0380EC90E090934D0380934C036F
:1030500081EC90E090934F0380934E0382EC90E0DC
:10306000909351038093500386EC90E09093530328
:1030700080935203109255031092560310925703F7
:10308000109258030895AF92BF92CF92DF92EF92C1
:10309000FF920F931F93CF93DF936C017B01C0E0EE
:1030A000D0E000E010E0F601EC0FFD1F4AE050E038
:1030B0006281C701D7D05C016EE2C70168D08A0D7A
:1030C0009B1D080F191F2196C330D10561F74AE0F7
:1030D00050E0F6016581C701C5D0800F911FDF91D7
:1030E000CF911F910F91FF90EF90DF90CF90BF9005
:1030F000AF9008958DE492E09093DA038093D90322
:103100001092DB031092DC031092DD031092DE03B9
:103110000895CF92DF92EF92FF920F931F93CF9378
:10312000DF936C017A01EB01E60EF71E00E010E080
:10313000CE15DF0561F06991D601ED91FC9101900A
:10314000F081E02DC6010995080F191FF1CFC801C4
:10315000DF91CF911F910F91FF90EF90DF90CF9073
:1031600008956115710581F0DB010D900020E9F7EC
:10317000AD0141505109461B570BDC01ED91FC910B
:103180000280F381E02D099480E090E00895DC0155
:10319000ED91FC910190F081E02D09948F929F9226
:1031A000AF92BF92CF92DF92EF92FF920F931F9355
:1031B000CF93DF93CDB7DEB7A1970FB6F894DEBFFC
:1031C0000FBECDBF7C01C42EE52FCB01D22E19A29C
:1031D00021E02D1510F02AE0D22E8E010F5D1F4F39
:1031E0008D2C912CA12CB12C6C2D7E2FA50194013E
:1031F0000E9412248C2DD29E801911240150110995
:103200008A3014F4805D01C0895CF8018083211547
:1032100031054105510521F0C22EE32FCA01E4CF4B
:10322000B801C7019EDFA1960FB6F894DEBF0FBEAE
:10323000CDBFDF91CF911F910F91FF90EF90DF9065
:10324000CF90BF90AF909F908F900895211531053A
:1032500041F4DC01ED91FC910190F081E02D642FAF
:1032600009949CCF9A01462F50E060E070E0EECFC9
:10327000813039F018F0823051F0089510926E00CC
:10328000089580916F008D7F80936F0008958091E5
:1032900070008D7F8093700081E08093B0008091FA
:1032A000B100887F84608093B1001092B3000895CC
:1032B000CF93C82F80917A018C1307C0E8EDF0E01E
:1032C00084919FEF90937A0101C08FEFD1DF60E08E
:1032D0008C2FCF91D4CC1F920F920FB60F92112446
:1032E0002F933F934F935F936F937F938F939F930E
:1032F000AF93BF93EF93FF938091E2039091E30329
:10330000A091E403B091E503892B8A2B8B2B51F11B
:103310009091DF03E091E003F091E1038081892740
:1033200080838091E2039091E303A091E403B09144
:10333000E503181619061A061B06BCF48091E20371
:103340009091E303A091E403B091E5030197A109F3
:10335000B1098093E2039093E303A093E403B09355
:10336000E50303C080917A01A3DFFF91EF91BF9144
:10337000AF919F918F917F916F915F914F913F910D
:103380002F910F900FBE0F901F90189508951F92C8
:103390000F920FB60F9211242F933F934F935F9389
:1033A0006F937F938F939F93AF93BF93EF93FF930D
:1033B0008BEC93EF9093850080938400E5D7FF9189
:1033C000EF91BF91AF919F918F917F916F915F919D
:1033D0004F913F912F910F900FBE0F901F90189516
:1033E0008BEC93EF9093850080938400AFE6B0E080
:1033F0008C918E7F8C93E0E8F0E080818C7F8083DD
:10340000E1E8F0E08081877E808380818560808331
:1034100080818D7F80838C9181608C93089581E081
:103420000895CF92DF92EF92FF920F931F93CF9365
:10343000DF93FC01DB01CA01B901C12CD12C76015B
:103440001DE7C0E2C216D306E406F506C9F00C91EA
:10345000033021F0D3E8D00FD23080F41083DC9118
:10346000DC27D18332966F5F7F4F8F4F9F4FDFEF07
:10347000CD1ADD0AED0AFD0A1196E4CF0193F7CFCC
:10348000DF91CF911F910F91FF90EF90DF90CF9040
:103490000895AF92BF92CF92DF92EF92FF920F9377
:1034A0001F93CF93DF93CDB7DEB72C970FB6F89469
:1034B000DEBF0FBECDBF8C015B01FB018181882384
:1034C00009F486C08EE7F8018083818383E08587D5
:1034D0008687108A1786128A118A138A148A158A97
:1034E000168A178A22E030E040E050E0B801C501BA
:1034F000CED281116EC021E030E040E050E0B80152
:103500006E5F7F4FCE0101968CDF9B01AC01BE0147
:103510006F5F7F4FC501BBD281115BC0F501208178
:10352000F80183819481A581B68189879A87AB87C9
:10353000BC87211108C02B859A8589853C853987F0
:103540002A879B878C8724E030E040E050E0BE0172
:10355000675F7F4FCE01019664DF9B01AC01BE0126
:103560006F5F7F4FC50193D2811133C0C12CD12C25
:103570007601F80183819481A581B681C816D906A8
:10358000EA06FB06D8F4F801678170856C0D7D1D95
:1035900021E030E040E050E0CE01019642DF9B01A7
:1035A000AC01BE016F5F7F4FC50171D2811111C0A7
:1035B000FFEFCF1ADF0AEF0AFF0ADBCFB801635F24
:1035C0007F4F22E030E040E050E0C50160D201C012
:1035D00080E02C960FB6F894DEBF0FBECDBFDF9112
:1035E000CF911F910F91FF90EF90DF90CF90BF9000
:1035F000AF9008952F923F924F925F926F927F9279
:103600008F929F92AF92BF92CF92DF92EF92FF92F2
:103610000F931F93CF93DF93CDB7DEB727970FB6E6
:10362000F894DEBF0FBECDBF7C016B011D821982F5
:103630001A821B821C82DB0111968C91882309F46B
:10364000AAC18EE7F7018083818383E0858786871F
:10365000108A1786128A118A138A148A158A168A82
:10366000178A3396FF83EE8385E0482E512C57014D
:10367000FDE0AF0EB11C47018FEF881A980A66244F
:103680006394712C170192E0290E311C8E010F5F9B
:103690001F4F21E030E040E050E0BE016B5F7F4F04
:1036A000C60149D2811178C189819A81AB81BC81DF
:1036B0000197A105B10551F0D70150961C921E92B9
:1036C0001F9752961C921E92519765C1F7018785EC
:1036D000908902970397C8F497898D81992329F0DF
:1036E000178AF0E28F278D8310C08D3749F08E370F
:1036F00039F1833051F4128A118A108A178605C075
:10370000E1E0D7015796EC93C1CFF7018785908907
:103710008230910509F43FC02CF4009769F00197BD
:1037200031F1B4CF8430910509F4BEC00CF469C006
:10373000059709F4F5C0AACF8D818E3709F0A6CF81
:10374000D70152969C928E9251978C9353968D915D
:103750009D910D90BC91A02D0196A11DB11DF70169
:10376000838B948BA58BB68B708A67868FCF8D8168
:103770008E3709F00BC10188F289E02D8083F701B3
:10378000138A148A158A168A82E090E0908B8787C4
:10379000328A218A7BCFF70183899489A589B689EA
:1037A000892B8A2B8B2B09F0F1C00188F289E02D3F
:1037B000CF010196D70152969C938E9351978D819C
:1037C000808353968D919D910D90BC91A02D019673
:1037D000A11DB11DF701838B948BA58BB68B01972F
:1037E000A105B10509F052CF83E090E0908B878767
:1037F000AE81BF81B28BA18B138A148A158A168A77
:1038000045CFF70183899489A589B6890497A105D5
:10381000B10508F0BBC00188F289E02DCF01019607
:10382000D70152969C938E9351978D8180835396A6
:103830008D919D910D90BC91A02D0196A11DB11D62
:10384000F701838B948BA58BB68B0497A105B105EB
:1038500009F01CCFD6018C9153814481358126819A
:10386000811103C0C901DA0104C0852F942FA32F51
:10387000B22FF70183839483A583B683138A148AB6
:10388000158A168A892B8A2B8B2B49F084E090E0CD
:10389000908B878787819085928B818BF7CE508A1A
:1038A0004786B28AA18AF2CEF70143895489658995
:1038B000768983819481A581B681481759076A0763
:1038C0007B0708F063C00188F289E02DCF010196E3
:1038D000D70152969C938E9351978D8180835396F6
:1038E0008D919D910D90BC91A02D0196A11DB11DB2
:1038F000F701838B948BA58BB68B438154816581B3
:10390000768184179507A607B70709F0BFCE508ABE
:103910004786B28AA18A138A148A158A168AB6CE75
:10392000F70183899489A589B6890297A105B10514
:1039300068F52D81233051F50188F289E02DCF0102
:103940000196D70152969C938E935197208353965C
:103950008D919D910D90BC91A02D0196A11DB11D41
:10396000F701838B948BA58BB68B0297A105B105CC
:1039700009F08CCE86E090E0908B8787128A118ABE
:10398000138A148A158A168A80E006C0F701128A03
:10399000118A108A178681E027960FB6F894DEBF49
:1039A0000FBECDBFDF91CF911F910F91FF90EF9090
:1039B000DF90CF90BF90AF909F908F907F906F904F
:1039C0005F904F903F902F90089581E08093E603A1
:1039D0001092E70386EE93E00895CF92DF92EF9284
:1039E000FF920F931F93CF93DF938C017B016A01AA
:1039F000FC018181811120C06CE070E081E090E0E9
:103A000039D7EC019093E9038093E8030097A1F084
:103A10001A861B8681E0F8018183B601C7015BD459
:103A200099838883E091E803F091E9038081918193
:103A3000019621F4F801118281E001C080E0DF915C
:103A4000CF911F910F91FF90EF90DF90CF9008954D
:103A5000CF93DF93FC0121812223A9F01182E09111
:103A6000E803F091E903808191812CD4EC018091ED
:103A7000E8039091E903009709F0AED781E0219621
:103A800019F080E001C081E0DF91CF910895FC0141
:103A90008181882369F0E091E803F091E903808156
:103AA00091810E942F1421E0019619F020E001C0BD
:103AB00021E0822F08950F931F93CF93DF9300D0BF
:103AC000CDB7DEB78B011A821982DC0111968C9179
:103AD000811102C081E028C0E091E803F091E90380
:103AE0008285882321F081E0FB0180831CC0DB01FB
:103AF0001C92BF016E5F7F4F9E012F5F3F4F48E0DA
:103B000050E08081918100D4019621F389819A81CE
:103B1000009749F091E0F8019083E091E803F0917B
:103B2000E9038287138680E00F900F90DF91CF9199
:103B30001F910F9108958F929F92AF92BF92CF9253
:103B4000DF92EF92FF920F931F93CF93DF935B016E
:103B500069017A01F8011082118212821382FC013C
:103B60008181811102C081E031C0C091E803D09110
:103B7000E9038A858823E9F090E0490182179307D9
:103B800008F44C016B8570E06E5F7F4F6C0F7D1FFA
:103B9000A401C501B0D78A8588198A878B85880DCD
:103BA0008B87A80CB91CA70196012819390941096E
:103BB0005109B501888199810E947214019699F288
:103BC000F801C082D182E282F38280E0DF91CF915E
:103BD0001F910F91FF90EF90DF90CF90BF90AF902B
:103BE0009F908F900895CF93DF93FB0120813181C7
:103BF000DC016D917C91DA01A85BBF4F672B19F452
:103C00002115310531F0E901C85BDF4F5983488345
:103C100003C051834083FC01518340831D921C9259
:103C2000DF91CF910895FC01DB018D919C91208162
:103C300031812115310519F4009709F40895D9014E
:103C4000A85BBF4F8D919C91119791838083892BA5
:103C500019F4FB01118210821D921C92C901089572
:103C60002091F1033091F2038091F3039091F403DA
:103C7000892B19F481E0232B09F080E0089520912D
:103C8000ED033091EE038091EF039091F003892BC7
:103C900019F481E0232B09F080E00895CF93DF939E
:103CA000C5E0D0E06AE470E081E090E0E3D5009701
:103CB00051F0AC0161EF73E083EF93E094DF219763
:103CC00089F780E001C081E0DF91CF9108957F9274
:103CD0008F929F92AF92BF92CF92DF92EF92FF921C
:103CE0000F931F93CF93DF9300D0CDB7DEB75C0166
:103CF000BC018EE094E07EDC782E811141C0809181
:103D00001004823019F41092F5033AC0C0901104E7
:103D1000D0901204E0901304F090140480901504E5
:103D20009090160461EF73E083EF93E07CDF8C01E9
:103D3000A601B401E0D6F801E05CFF4FEE24D7FC09
:103D4000E094FE2CC082D182E282F382349610820B
:103D5000118212821382A8016DEE73E08FEE93E060
:103D600042DF7EDF81110CC002E010E09E012F5F78
:103D70003F4F40E050E060E070E0C50112D0782E87
:103D8000872D0F900F90DF91CF911F910F91FF9092
:103D9000EF90DF90CF90BF90AF909F908F907F90EB
:103DA00008958F929F92AF92BF92CF92DF92EF923F
:103DB000FF920F931F93CF93DF9300D01F92CDB745
:103DC000DEB76C014B0158017A014331510518F0FF
:103DD00082E1E82EF12CF901F182E08200E010E0AE
:103DE0008091F503882379F1F2E0AF16B10459F11F
:103DF0001B82BE016D5F7F4FC6015DDE81113BC03E
:103E00008B81811104C02CDF811106C0E7CFC60170
:103E10005EDF8823C1F32FC0083C11051CF40F5F3F
:103E20001F4FDECF3BDF811126C002E010E09E0174
:103E30002F5F3F4F40E050E060E070E0C601B1DF2F
:103E4000882361F218C0C701A0E0B0E08093F903B5
:103E50009093FA03A093FB03B093FC03A092F803A2
:103E6000A701B4018091FD039091FE0344D6B601F1
:103E700086EF93E00EDB0F900F900F90DF91CF91C4
:103E80001F910F91FF90EF90DF90CF90BF90AF9078
:103E90009F908F900895CF93E3DE811107C061EF6B
:103EA00073E083EF93E0BFDE97D5F6CFE8DE8111B4
:103EB00007C06DEE73E08FEE93E0B5DE8DD5F6CFE3
:103EC000809115049091160487D5C8E1EEE0F4E0E6
:103ED000DF018C2F1D928A95E9F78091FD03909167
:103EE000FE037AD5E6EFF3E0DF011D92CA95E9F70C
:103EF0001092EE031092ED031092F0031092EF0374
:103F00001092F2031092F1031092F4031092F30353
:103F10001092F503CF91089580E0089521E0FC010F
:103F200081819281892B09F420E0FB01208380E0CC
:103F300008951092F50308950F931F93CF93DF9385
:103F4000EC0109811A810115110529F0A4DFC801CE
:103F50007FDD1A821982DF91CF911F910F91089511
:103F60008F929F92AF92BF92CF92DF92EF92FF9289
:103F70000F931F93CF93DF938C015B014A01C42FF2
:103F8000D92DEE24E394F12CEA14FB0484F4FFEF22
:103F9000EF1AFF0A8A819B81009739F067E772E088
:103FA000BAD5892B11F41B821A822296EDCF81E0BB
:103FB000F80180830ADDEC01009799F16CDF80E461
:103FC00090E072D49093FE038093FD03892B39F126
:103FD00090E4C92ED12CE12CF12CC092FF03D09299
:103FE0000004E0920104F092020480E490E05CD4CA
:103FF0009093160480931504892B89F0C0921704BE
:10400000D0921804E0921904F0921A0447DE81114C
:1040100006C0A401B501CE01E0DC882311F0C0E0A8
:10402000D0E0F801D283C183CD2B19F080E090E07D
:1040300002C08FE492E0DF91CF911F910F91FF902A
:10404000EF90DF90CF90BF90AF909F908F900895AA
:10405000FC01808108958AEE93E0089508956F929F
:104060007F928F929F92AF92BF92CF92DF92EF9208
:10407000FF920F931F93CF93DF9300D0CDB7DEB79E
:104080007C015B018A014901FC01C180D280F7DD1E
:104090008823C9F01982BE016F5F7F4FC6010BDD17
:1040A000782E811188C08981882339F0C6010FDEFE
:1040B000811107C0E4DD882331F0F80111821082FC
:1040C0007AC0782E78C0F701C180D2808091EF034A
:1040D0009091F003009731F4C601F9DD782E882322
:1040E000A9F369C07C01F4E4EF0EF11CF7014081F3
:1040F0005181628173813C01F0E46F0E711CF30108
:1041000020813181241B350BF801A216B3061CF067
:104110003183208302C0B182A082BC01640F751F6D
:10412000F80140815181C401E6D4F8018081918178
:10413000AA2797FDA095BA2FF7014081518162818E
:104140007381840F951FA61FB71F80839183A2835D
:10415000B383F30140815181628173818417950794
:10416000A607B70739F57CDD182FF30110821182FD
:1041700012821382F70110821182128213826DEE75
:1041800073E08FEE93E04FDDAC0161EF73E083EFFE
:1041900093E029DD112371F002E010E09E012F5F12
:1041A0003F4F40E050E060E070E0C601FADD782E5D
:1041B000811101C0712C872D0F900F90DF91CF914D
:1041C0001F910F91FF90EF90DF90CF90BF90AF9035
:1041D0009F908F907F906F9008955F926F927F92E3
:1041E0008F929F92AF92BF92CF92DF92EF92FF9207
:1041F0000F931F93CF93DF9300D0CDB7DEB76B0142
:104200003A015901FC01818092801A821982E12CC5
:10421000F12C55245394EC14FD04B4F401E010E0A7
:104220009E012F5F3F4FA6014E195F09B3016E0D2E
:104230007F1DC401B6DD81110BC089819A81E80E12
:10424000F91E5092F503E7CF80E0F501D182C082DC
:104250000F900F90DF91CF911F910F91FF90EF90F2
:10426000DF90CF90BF90AF909F908F907F906F9096
:104270005F9008950895CF93DF93EC0189819A812F
:10428000E7DB1A821982DF91CF9108950F931F9374
:10429000CF93DF93EA018901F894E0913C03F09118
:1042A0003D030280F381E02D8CE393E0099578943F
:1042B000F801D183C08380E090E0DF91CF911F911E
:1042C0000F91089568EE73E080E090E00E947D1504
:1042D00080E090E008950E94A21526E040E052ECB4
:1042E00061E070E08CE393E00E9447178CE393E079
:1042F0000E947416892B29F08CE393E00E948D169E
:10430000F5CF80E090E00895CF92DF92EF92FF9298
:104310000F931F93CF93DF9300D0CDB7DEB77A0111
:104320006901F901118210828CE393E069837A8339
:104330000E94741669817A81892BC9F08B01F6017C
:10434000808191818E159F0590F48CE393E00E940B
:104350008D168F3FFFEF9F0791F3F80181938F0137
:10436000F60180819181019691838083E8CF80E07E
:1043700090E00F900F90DF91CF911F910F91FF90E0
:10438000EF90DF90CF9008952091260481E0820F76
:1043900080932604222349F081E090E09093280442
:1043A0008093270420932604089578940E9498000F
:1043B000F894809126048150809326040C941F1455
:1043C000FF920F931F93CF93DF9300D0CDB7DEB74B
:1043D00081E08A830E94A2150E94C619E091FC0127
:1043E000F091FD011182108260E070E080E090E0C9
:1043F0000E9428140E94BF0178940091FC01109142
:10440000FD01C80182960E94271481E090E00E947D
:1044100023141982AE014F5F5F4F61E070E0F80135
:10442000828193810E94CD138981882319F081E0D4
:10443000F80186A30E942E14F8940E94F019F80146
:1044400080819181892B19F481E096A1911180E0FE
:104450008A8378947894FF24F3948A81882319F1CD
:104460001982AE014F5F5F4F61E070E0F801828119
:1044700093810E9409148981882311F0F801F6A222
:10448000F80180819181892B19F481E096A1911125
:1044900080E08A838A81882319F00E940F1A01C064
:1044A00080E08A83DACF81E090E00E9425140E94A8
:1044B0006302F89480E090E00F900F90DF91CF912D
:1044C0001F910F91FF9008955058BB27AA270ED037
:1044D00008C1F9D030F0FED020F031F49F3F11F444
:1044E0001EF4EEC00EF4E095E7FBE4C0E92F0AD11C
:1044F00080F3BA17620773078407950718F071F401
:104500009EF522C10EF4E0950B2EBA2FA02D0B01C3
:10451000B90190010C01CA01A0011124FF27591B08
:1045200099F0593F50F4503E68F11A16F040A22F0E
:10453000232F342F4427585FF3CF4695379527957F
:10454000A795F0405395C9F77EF41F16BA0B620B7E
:10455000730B840BBAF09150A1F0FF0FBB1F661FC5
:10456000771F881FC2F70EC0BA0F621F731F841F08
:1045700048F4879577956795B795F7959E3F08F02E
:10458000B3CF9395880F08F09927EE0F97958795ED
:1045900008956CD008F481E00895BCD088F09F574E
:1045A00090F0B92F9927B751A0F0D1F0660F771F7F
:1045B000881F991F1AF0BA95C9F712C0B13081F05F
:1045C000C3D0B1E00895C0C0672F782F8827B85FA7
:1045D00039F0B93FCCF3869577956795B395D9F7C0
:1045E0003EF490958095709561957F4F8F4F9F4FCA
:1045F0000895E89409C097FB3EF4909580957095D6
:1046000061957F4F8F4F9F4F9923A9F0F92F96E91E
:10461000BB279395F695879577956795B795F11193
:10462000F8CFFAF4BB0F11F460FF1BC06F5F7F4F30
:104630008F4F9F4F16C0882311F096E911C0772342
:1046400021F09EE8872F762F05C0662371F096E84B
:10465000862F70E060E02AF09A95660F771F881F1A
:10466000DAF7880F9695879597F90895990F0008BE
:10467000550FAA0BE0E8FEEF16161706E807F90734
:10468000C0F012161306E407F50798F0621B730BCF
:10469000840B950B39F40A2661F0232B242B252B50
:1046A00021F408950A2609F4A140A6958FEF811DF3
:1046B000811D089597F99F6780E870E060E0089594
:1046C0009FEF80EC089500240A941616170618062A
:1046D0000906089500240A94121613061406050606
:1046E0000895092E0394000C11F4882352F0BB0F97
:1046F00040F4BF2B11F460FF04C06F5F7F4F8F4FFA
:104700009F4F089557FD9058440F551F59F05F3F34
:1047100071F04795880F97FB991F61F09F3F79F0E3
:1047200087950895121613061406551FF2CF469565
:10473000F1DF08C0161617061806991FF1CF8695E7
:104740007105610508940895E894BB2766277727CB
:10475000CB0197F908958ADF08F48FEF08950BD005
:10476000C0CFB1DF28F0B6DF18F0952309F0A2CF53
:10477000A7CF1124EACFC6DFA0F3959FD1F3950F01
:1047800050E0551F629FF001729FBB27F00DB11DD5
:10479000639FAA27F00DB11DAA1F649F6627B00D65
:1047A000A11D661F829F2227B00DA11D621F739F4E
:1047B000B00DA11D621F839FA00D611D221F749F5C
:1047C0003327A00D611D231F849F600D211D822FA3
:1047D000762F6A2F11249F5750408AF0E1F08823EA
:1047E0004AF0EE0FFF1FBB1F661F771F881F9150F7
:1047F0005040A9F79E3F510570F05CCFA6CF5F3FB8
:10480000ECF3983EDCF3869577956795B795F79529
:10481000E7959F5FC1F7FE2B880F911D96958795B1
:1048200097F90895A1E21A2EAA1BBB1BFD010DC02A
:10483000AA1FBB1FEE1FFF1FA217B307E407F50750
:1048400020F0A21BB30BE40BF50B661F771F881F2C
:10485000991F1A9469F760957095809590959B01C2
:10486000AC01BD01CF010895EE0FFF1F0590F4913B
:10487000E02D09940F931F93CF93DF93869F8001C0
:10488000879F100D969F100D1124C8010DD0EC01CB
:10489000009721F0A80160E070E036D1CE01DF91F1
:1048A000CF911F910F910895CF93DF93823091059F
:1048B00010F482E090E0E0915204F091530420E083
:1048C00030E0A0E0B0E0309739F1408151814817E5
:1048D0005907B8F04817590771F4828193811097EE
:1048E00029F013969C938E9312972CC090935304A7
:1048F0008093520427C02115310531F04217530728
:1049000018F0A901DB0101C0EF019A01BD01DF012F
:104910000280F381E02DD7CF21153105F9F0281B56
:10492000390B2430310580F48A819B816115710532
:1049300021F0FB019383828304C0909353048093FE
:104940005204FE01329644C0FE01E20FF31F819330
:10495000919322503109398328833AC02091500421
:1049600030915104232B41F4209102013091030135
:1049700030935104209350042091000130910101A3
:104980002115310541F42DB73EB7409104015091F6
:104990000501241B350BE0915004F0915104E217FE
:1049A000F307A0F42E1B3F0B2817390778F0AC0152
:1049B0004E5F5F4F2417350748F04E0F5F1F50932F
:1049C0005104409350048193919302C0E0E0F0E0E1
:1049D000CF01DF91CF910895CF93DF93009709F432
:1049E00087C0FC01329713821282C0915204D09189
:1049F0005304209781F420813181280F391F809141
:104A00005004909151048217930779F5F093510463
:104A1000E09350046DC0DE0120E030E0AE17BF0728
:104A200050F412964D915C9113979D0141155105DB
:104A300009F1DA01F3CFB383A28340815181840F5E
:104A4000951F8A179B0771F48D919C911197840F84
:104A5000951F02969183808312968D919C91139756
:104A6000938382832115310529F4F0935304E09355
:104A700052043EC0D9011396FC93EE9312974D91C8
:104A80005D91A40FB51FEA17FB0779F4808191812E
:104A9000840F951F0296D90111969C938E93828163
:104AA000938113969C938E931297E0E0F0E08A81B5
:104AB0009B81009719F0FE01EC01F9CFCE0102961F
:104AC00028813981820F931F209150043091510425
:104AD0002817390769F4309729F41092530410927B
:104AE000520402C013821282D0935104C093500426
:104AF000DF91CF910895FB01DC0102C001900D927E
:104B000041505040D8F70895DC0101C06D934150E9
:104B10005040E0F70895FB01DC018D910190801970
:0C4B20000110D9F3990B0895F894FFCF11
:104B2C000000540480000100000002000E01560138
:104B3C0007000000040066010000000004008F0163
:104B4C009601A0019F01A801A701B101B001B90113
:104B5C00C301CE01D401DE01E70104000400010011
:104B6C000100020002000400040001000400020025
:104B7C00020004000800030000000400000005000F
:104B8C000000060000000000000000000000000013
:104B9C0000000000000001010100FF53696D756CFD
:104BAC006174696F6E2066696E6973686564007202
:104BBC0065616C5F54007265616C33325F540075D3
:104BCC00696E74385F540075696E7431365F5400C9
:104BDC0075696E7433325F5400626F6F6C65616E11
:104BEC005F540066636E5F63616C6C5F5400696E4A
:104BFC00745F5400706F696E7465725F540061630A
:104C0C0074696F6E5F540074696D65725F75696E5F
:104C1C007433325F706169725F5400012904436F11
:104C2C00756C64206E6F74206372656174652065A9
:104C3C00787465726E616C206D6F64652075736538
:104C4C007220646174612E20204F7574206F662071
:104C5C006D656D6F72792E0A0000000000E31689F5
:104C6C001874168D167F16C21600000000431845E6
:104C7C0078744F70656E53657269616C436F6E6EBC
:104C8C00656374696F6E28292063616C6C206661A2
:0A4C9C00696C65642E0A002D770094
:00000001FF
